:100000000C94C5000C94E2000C94E2000C94E20005
:100010000C94E2000C94E2000C94E2000C94E200D8
:100020000C94E2000C94E2000C94E2000C94E200C8
:100030000C94E2000C94E2000C94E2000C94E200B8
:100040000C94E2000C94E2000C94E2000C94E200A8
:100050000C94E2000C94E2000C94E2000C94E20098
:100060000C94E2000C94E2000C94E2000C94E20088
:100070000C94E2000C94E2000C94E2006E616E00BD
:10008000696E660000407A10F35A00A0724E18099B
:100090000010A5D4E80000E87648170000E40B54EF
:1000A000020000CA9A3B000000E1F50500008096BE
:1000B0009800000040420F000000A08601000000F0
:1000C000102700000000E8030000000064000000AA
:1000D00000000A00000000000100000000002C7673
:1000E000D888DC674F0823DFC1DFAE59E1B1B7968E
:1000F000E5E3E453C63AE651997696E8E6C28426EB
:10010000EB898C9B62ED407C6FFCEFBC9C9F40F2C6
:10011000BAA56FA5F490055A2AF75C936B6CF96742
:100120006DC11BFCE0E40D47FEF520E6B500D0ED07
:10013000902E0300943577050080841E080000206F
:100140004E0A000000C80C333333330F986E12830D
:100150001141EF8D2114893BE65516CFFEE6DB18E1
:10016000D1844B381BF77C1D901DA4BBE4242032A6
:1001700084725E228100C9F124ECA1E53D2763640D
:10018000696E6F70737578585B0011241FBECFEFD6
:10019000D0E1DEBFCDBF12E0A0E0B1E0EEE9F6E2D3
:1001A00002C005900D92A839B107D9F712E0A8E96D
:1001B000B2E001C01D92AE39B107E1F70E948101A2
:1001C0000C944D130C9400001F93182F8A3019F4CF
:1001D0008DE00E94E4008091C00085FFFCCF109369
:1001E000C600212F332727FD3095C9011F9108959F
:1001F0008091C00087FFFCCF8091C60090E00895F9
:100200001092C5008DE48093C40088E18093C10002
:1002100086E08093C20081E891E090939B028093F6
:100220009A0290939D0280939C0283E791E09093C1
:10023000990280939802089510927C0086E880933A
:100240007A000895569A579A83E88093B00081E027
:100250008093B10008951F93182F813F08F010EF8D
:1002600000D000D0EDB7FEB7319680E091E0ADB799
:10027000BEB712969C938E931197128313820E949D
:10028000890F1093B3000F900F900F900F901F9154
:100290000895EF92FF920F931F9380917A008064EC
:1002A00080937A0080917A0086FDFCCFE090780000
:1002B000F090790000D000D08FE091E0EDB7FEB76C
:1002C00092838183F482E3820E94890F00E010E030
:1002D000C801B7010E94430823E333E343E550E438
:1002E0000E94DF0520E030EC4FE754E40E94D9067D
:1002F0000F900F900F900F901F910F91FF90EF9024
:1003000008952F923F924F925F926F927F928F92B9
:100310009F92AF92BF92CF92DF92EF92FF920F9394
:100320001F93DF93CF93CDB7DEB7C05DD0400FB63C
:10033000F894DEBF0FBECDBF8FEF84B90E940001DD
:100340000E94220110927C0086E880937A0087E167
:1003500091E00E949E0F00D000D000D0EDB7FEB714
:10036000319604E311E0ADB7BEB712961C930E931D
:10037000119793E0E92EF12CEC0EFD1EF382E28240
:100380006E010894C11CD11CD582C4820E94D30F77
:1003900069807A801B824424552488249924EDB7EF
:1003A000FEB736960FB6F894FEBF0FBEEDBFC5532D
:1003B000DF4F0883CB5CD040C453DF4F1883CC5C45
:1003C000D040C353DF4FE882CD5CD040C253DF4FF3
:1003D000F882CE5CD040C153DF4FC882CF5CD040A2
:1003E000C053DF4FD882C05DD04082E6282E81E026
:1003F000382E00D000D0EAE3F1E0ADB7BEB71296D8
:10040000FC93EE93119714967C926E9213970E9430
:10041000890FEBE4F1E0ADB7BEB71296FC93EE9313
:10042000119714965C924E9213970E94890F0F9029
:100430000F900F900F900E9449017B018C01B30136
:10044000882777FD8095982F0E94E5075B016C0156
:10045000C801B7012FE832EC45EB50E40E94DF05FC
:100460007B018C01C601B5012DEC3CEC4CE45DEB4D
:100470000E94DF059B01AC01C601B5010E94B205D7
:100480009B01AC01C801B7010E94850718160CF04A
:100490007BC10E9449012FE832EC45EB50E40E94F9
:1004A000DF057B018C01C601B5012DEC3CEC4CE471
:1004B0005DE30E94DF059B01AC01C601B5010E940E
:1004C000B2059B01AC01C801B7010E94B5078823A2
:1004D0000CF05AC1882D0E942B010E94490100D0C6
:1004E00000D000D00DB71EB70F5F1F4FE3E5F1E05E
:1004F000ADB7BEB71296FC93EE9311972FE832EC8E
:1005000045EB50E40E94DF05D80112966D937D9370
:100510008D939C9315970E94890FEDB7FEB7369681
:100520000FB6F894FEBF0FBEEDBF0E9449012FE841
:1005300032EC45EB50E40E94DF0523E333E343E76D
:100540005FE30E948507181694F40E9449012FE882
:1005500032EC45EB50E40E94DF0526E636E646E83D
:100560005FE30E94B507882314F4289A2B980E9411
:1005700049012FE832EC45EB50E40E94DF0523E30C
:1005800033E343EF5FE30E94850718169CF40E9453
:1005900049012FE832EC45EB50E40E94DF0526E6E6
:1005A00036E646E050E40E94B50788231CF42A9AF8
:1005B0002B9828980E9449012FE832EC45EB50E433
:1005C0000E94DF0526E636E646E350E40E948507F2
:1005D00018169CF40E9449012FE832EC45EB50E4D8
:1005E0000E94DF052AE939E949E450E40E94B50791
:1005F00088231CF4289A2A9A2B980E9449012FE8F4
:1006000032EC45EB50E40E94DF0523E333E343E79C
:1006100050E40E948507181694F40E9449012FE8BF
:1006200032EC45EB50E40E94DF0526E636E646E86C
:1006300050E40E94B507882314F42B9A28980E944E
:1006400049012FE832EC45EB50E40E94DF0520E041
:1006500030E048E950E40E948507181694F40E949F
:1006600049012FE832EC45EB50E40E94DF0523E31B
:1006700033E34BEA50E40E94B507882314F42B9A25
:10068000289A0E9449012FE832EC45EB50E40E9481
:10069000DF0526E636E646EB50E40E94850718168D
:1006A0009CF40E9449012FE832EC45EB50E40E9493
:1006B000DF0523E333E34BEC50E40E94B5078823C6
:1006C0001CF42B9A2A9A28980E9449012FE832ECB0
:1006D00045EB50E40E94DF052DEC3CEC44ED50E48A
:1006E0000E94850718169CF40E9449012FE832ECFD
:1006F00045EB50E40E94DF0523E333E34BEE50E487
:100700000E94B50788231CF42B9A289A2A9A1B82E8
:1007100000D000D000D0EDB7FEB73196C553DF4F03
:100720002881CB5CD040ADB7BEB711962C93119702
:10073000C453DF4F3881CC5CD04012963C93C353F6
:10074000DF4F8881CD5CD0408283C253DF4F9881D8
:10075000CE5CD0409383C153DF4FA881CF5CD040A3
:10076000A483C053DF4FB881C05DD040B5830E94E1
:10077000D30F69807A80EDB7FEB736960FB6F8943E
:10078000FEBF0FBEEDBF48C00E9449012FE832EC0A
:1007900045EB50E40E94DF05A60195010E94850704
:1007A0001816ACF4289A2B982A988401015010400E
:1007B000882D0E942B0178010894E108F108802F10
:1007C0000E942B01470108948108910822C00E94D1
:1007D00049012FE832EC45EB50E40E94DF05A60109
:1007E00095010E94B5078823BCF42B9A28982A9873
:1007F00084010F5F1F4F882D0E942B017801089400
:10080000E11CF11C802F0E942B0147010894811CE0
:10081000911C8E2D0E942B010E94490100D000D016
:1008200000D00DB71EB70F5F1F4FADB7BEB7129602
:100830003C922E9211972FE832EC45EB50E40E9447
:10084000DF05F80162837383848395830E94890F97
:100850000894411C511C2DB73EB72A5F3F4F0FB67D
:10086000F8943EBF0FBE2DBFC4CDA0E0B0E0EBE3D7
:10087000F4E00C94380EDC012B01FA019C919230CB
:1008800008F439C1EB018881823008F433C1943017
:1008900069F4843009F02FC111969C9111978981D8
:1008A000981709F428C1AFE8B1E025C1843009F4F4
:1008B00021C18230A9F4923009F01DC19A01AD0125
:1008C00088E0EA010990AE01E90109929E01815098
:1008D000C1F7E201898111969C918923818308C126
:1008E000923009F407C112962D903C901397EB01BA
:1008F0008A819B811496AD90BD90CD90DC90179726
:10090000EC80FD800E811F819101281B390BB901FC
:1009100037FF04C066277727621B730B60327105AF
:100920000CF061C0121613066CF537014801062E53
:1009300004C096948794779467940A94D2F721E040
:1009400030E040E050E004C0220F331F441F551F29
:100950006A95D2F721503040404050402E213F212F
:1009600040235123211531054105510521F021E096
:1009700030E040E050E079018A01E628F7280829B4
:1009800019293CC0232BD1F1260E371E3501460113
:10099000062E04C096948794779467940A94D2F7AD
:1009A00021E030E040E050E004C0220F331F441F3C
:1009B000551F6A95D2F721503040404050402A21BF
:1009C0003B214C215D21211531054105510521F0C7
:1009D00021E030E040E050E059016A01A628B72844
:1009E000C828D9280BC0821593052CF01C01AA2415
:1009F000BB24650103C0EE24FF24870111969C915E
:100A0000D20111968C91981709F445C0992339F0B9
:100A1000A80197012A193B094C095D0906C0A601E6
:100A200095012E193F09400B510B57FD08C011824B
:100A30003382228224833583468357831DC081E01D
:100A400081833382228288279927DC01821B930BC2
:100A5000A40BB50B84839583A683B7830DC0220FA7
:100A6000331F441F551F2483358346835783828158
:100A700093810197938382832481358146815781B5
:100A8000DA01C9010197A109B1098F5F9F4FAF4FEB
:100A9000BF4328F30BC0918333822282EA0CFB1CF4
:100AA0000C1D1D1DE482F5820683178383E080837D
:100AB000248135814681578157FF1AC0C901AA2771
:100AC00097FDA095BA2F81709070A070B070569568
:100AD000479537952795822B932BA42BB52B848391
:100AE0009583A683B78382819381019693838283C2
:100AF000DF0101C0D201CD01CDB7DEB7E2E10C9438
:100B0000540EA0E2B0E0E7E8F5E00C94440E6983EF
:100B10007A838B839C832D833E834F835887E9E0C0
:100B2000EE2EF12CEC0EFD1ECE010196B7010E94B7
:100B3000E0098E010F5E1F4FCE010596B8010E949D
:100B4000E0098A8991E089278A8BC701B801AE0143
:100B5000475E5F4F0E9435040E940B09A096E6E0B5
:100B60000C94600EA0E2B0E0E8EBF5E00C94440ECB
:100B700069837A838B839C832D833E834F8358873D
:100B8000F9E0EF2EF12CEC0EFD1ECE010196B7011F
:100B90000E94E0098E010F5E1F4FCE010596B8013D
:100BA0000E94E009C701B801AE01475E5F4F0E9495
:100BB00035040E940B09A096E6E00C94600EA0E2BA
:100BC000B0E0E5EEF5E00C94380E69837A838B8310
:100BD0009C832D833E834F835887CE010196BE01AF
:100BE000675F7F4F0E94E009CE010596BE016F5EF0
:100BF0007F4F0E94E0099985923088F08989823080
:100C0000C8F0943019F4823051F404C0843029F4CF
:100C1000923081F48FE891E0C6C0923049F420E030
:100C20009A858A89981321E02A87CE010996BBC04C
:100C3000823049F420E09A858A89981321E02A8B32
:100C4000CE014196B0C02D843E844F8458886D8873
:100C50007E888F88988CEE24FF248701AA24BB24E9
:100C6000650140E050E060E070E0E0E0F0E0C101EC
:100C700081709070892BE9F0E60CF71C081D191D96
:100C80009A01AB012A0D3B1D4C1D5D1D80E090E0DB
:100C9000A0E0B0E0E614F7040805190520F481E0AF
:100CA00090E0A0E0B0E0BA01A901480F591F6A1F07
:100CB0007B1FAA0CBB1CCC1CDD1C97FE08C081E06E
:100CC00090E0A0E0B0E0A82AB92ACA2ADB2A31962F
:100CD000E032F10549F0660C771C881C991C56948B
:100CE000479437942794C3CFFA85EA892B893C89A6
:100CF0008B859C85280F391F2E5F3F4F17C0CA0177
:100D000081709070892B61F016950795F794E794A0
:100D100080E090E0A0E0B0E8E82AF92A0A2B1B2B3B
:100D200076956795579547952F5F3F4F77FDE7CFAE
:100D30000CC0440F551F661F771F17FD4160EE0C56
:100D4000FF1C001F111F21503040403090E0590718
:100D500090E0690790E4790760F32B8F3C8FDB010B
:100D6000CA018F779070A070B07080349105A10592
:100D7000B10561F447FD0AC0E114F1040105110554
:100D800029F0405C5F4F6F4F7F4F40781A8EFE17FF
:100D900011F081E08A8F4D8F5E8F6F8F78A383E093
:100DA000898FCE0149960E940B09A096E2E10C942E
:100DB000540EA8E1B0E0EFEDF6E00C94400E69832C
:100DC0007A838B839C832D833E834F835887B9E03E
:100DD000EB2EF12CEC0EFD1ECE010196B7010E9408
:100DE000E0098E010F5E1F4FCE010596B8010E94EB
:100DF000E0092985223008F47EC03989323010F4A8
:100E0000B8017CC08A859A8989278A87243011F0A5
:100E1000223031F4231709F06EC06FE871E06EC024
:100E2000343039F41D861E861F86188A1C861B8660
:100E300004C0323021F484E08987B7015FC02B857C
:100E40003C858B899C89281B390B3C872B87ED843B
:100E5000FE840F851889AD88BE88CF88D88CEA14A7
:100E6000FB040C051D0540F4EE0CFF1C001F111FB8
:100E7000215030403C872B8720E030E040E050E0BC
:100E800080E090E0A0E0B0E460E070E0EA14FB04F1
:100E90000C051D0540F0282B392B4A2B5B2BEA183B
:100EA000FB080C091D09B695A79597958795EE0C3B
:100EB000FF1C001F111F6F5F7F4F6F31710531F7EE
:100EC000DA01C9018F779070A070B07080349105FD
:100ED000A105B10561F427FD0AC0E114F104010583
:100EE000110529F0205C3F4F4F4F5F4F20782D8731
:100EF0003E874F87588BBE01675F7F4FCB010E94B3
:100F00000B096896EAE00C945C0EA8E1B0E0EBE80F
:100F1000F7E00C94440E69837A838B839C832D8342
:100F20003E834F83588789E0E82EF12CEC0EFD1E9E
:100F3000CE010196B7010E94E0098E010F5E1F4F9E
:100F4000CE010596B8010E94E0098985823040F003
:100F50008989823028F0C701B8010E94580A01C06F
:100F60008FEF6896E6E00C94600EA8E1B0E0EBEB42
:100F7000F7E00C94440E69837A838B839C832D83E2
:100F80003E834F83588789E0E82EF12CEC0EFD1E3E
:100F9000CE010196B7010E94E0098E010F5E1F4F3E
:100FA000CE010596B8010E94E0098985823040F0A3
:100FB0008989823028F0C701B8010E94580A01C00F
:100FC00081E06896E6E00C94600EA8E0B0E0EBEEFD
:100FD000F7E00C94410E9B01AC0183E08983DA01B8
:100FE000C9018827B7FD83959927AA27BB27B82E63
:100FF000211531054105510519F482E089833AC074
:101000008823A9F0203080E0380780E0480780E896
:10101000580729F460E070E080E09FEC30C0EE24D7
:10102000FF248701E21AF30A040B150B02C07901B1
:101030008A018EE1C82ED12CDC82CB82ED82FE8229
:101040000F831887C801B7010E94BC0801971816C2
:10105000190684F4082E04C0EE0CFF1C001F111F9B
:101060000A94D2F7ED82FE820F831887C81AD90A34
:10107000DC82CB82BA82CE0101960E940B092896AF
:10108000E9E00C945D0EA8E0B0E0E9E4F8E00C942F
:10109000400E7B018C01611571058105910519F4E4
:1010A00082E0898360C083E089838EE1C82ED12CE1
:1010B000DC82CB82ED82FE820F831887C801B701E4
:1010C0000E94BC08FC013197F7FF3BC02227332761
:1010D0002E1B3F0B57016801022E04C0D694C79403
:1010E000B794A7940A94D2F740E050E060E070E033
:1010F00081E090E0A0E0B0E004C0880F991FAA1F33
:10110000BB1F2A95D2F70197A109B1098E219F2112
:10111000A023B1230097A105B10521F041E050E0E3
:1011200060E070E04A295B296C297D294D835E834C
:101130006F8378878EE190E08E1B9F0B9C838B835F
:1011400012C0309781F00E2E04C0EE0CFF1C001F61
:10115000111F0A94D2F7ED82FE820F831887CE1AF0
:10116000DF0ADC82CB821A82CE0101960E940B0933
:101170002896EAE00C945C0EEF92FF920F931F9377
:101180007B018C0180E0E81680E0F80681E008072A
:1011900080E0180788F48FEFE816F10401051105C7
:1011A00031F028F088E090E0A0E0B0E017C080E0E7
:1011B00090E0A0E0B0E012C080E0E81680E0F80621
:1011C00080E0080781E0180728F088E190E0A0E0BF
:1011D000B0E004C080E190E0A0E0B0E020E230E0C8
:1011E00040E050E0281B390B4A0B5B0B04C01695FE
:1011F0000795F794E7948A95D2F7F701E956FE4FE1
:101200008081281B310941095109C9011F910F91A2
:10121000FF90EF900895DF92EF92FF920F931F934C
:10122000FC01E480F58006811781D18080818230C5
:1012300048F480E090E0A0E1B0E0E82AF92A0A2B27
:101240001B2BA5C0843009F49FC0823021F4EE240A
:10125000FF24870105C0E114F1040105110519F40B
:10126000E0E0F0E096C0628173819FEF6238790719
:101270000CF05BC022E83FEF261B370B2A3131050B
:101280002CF020E030E040E050E02AC0B801A70197
:10129000022E04C076956795579547950A94D2F724
:1012A00081E090E0A0E0B0E004C0880F991FAA1F81
:1012B000BB1F2A95D2F70197A109B1098E219F2161
:1012C000A023B1230097A105B10521F081E090E0B2
:1012D000A0E0B0E09A01AB01282B392B4A2B5B2B05
:1012E000DA01C9018F779070A070B07080349105D9
:1012F000A105B10539F427FF09C0205C3F4F4F4FCE
:101300005F4F04C0215C3F4F4F4F5F4FE0E0F0E084
:101310002030A0E03A07A0E04A07A0E45A0710F006
:10132000E1E0F0E079018A0127C06038710564F5D9
:10133000FB01E158FF4FD801C7018F779070A07073
:10134000B07080349105A105B10539F4E7FE0DC0F8
:1013500080E490E0A0E0B0E004C08FE390E0A0E083
:10136000B0E0E80EF91E0A1F1B1F17FF05C01695F7
:101370000795F794E794319687E016950795F794CB
:10138000E7948A95D1F705C0EE24FF248701EFEF9B
:10139000F0E06E2F679566276795902F9F77D7941B
:1013A000DD24D7948E2F8695492F462B582F5D2903
:1013B000B701CA011F910F91FF90EF90DF90089540
:1013C000FC01DB01408151812281622F6F7770E047
:1013D000221F2227221F9381892F880F822B282FDB
:1013E00030E0991F9927991F11969C931197211509
:1013F0003105A9F5411551056105710511F482E02A
:1014000037C082E89FEF13969C938E9312979A01B0
:10141000AB0167E0220F331F441F551F6A95D1F7B8
:1014200083E08C930DC0220F331F441F551F12966B
:101430008D919C911397019713969C938E9312977D
:10144000203080E0380780E0480780E4580758F3F0
:1014500014962D933D934D935C93179708952F3FCA
:10146000310579F4411551056105710519F484E0E0
:101470008C93089564FF03C081E08C9312C01C928A
:1014800010C02F57304013963C932E93129783E051
:101490008C9387E0440F551F661F771F8A95D1F7FD
:1014A000706414964D935D936D937C931797089594
:1014B0001F93DC01FB019C91923008F447C08081AE
:1014C000823008F443C0943051F411961C9184305A
:1014D00099F58181682F70E0611B71093FC08430EC
:1014E00021F0923031F48230B9F18181882389F181
:1014F0002DC011961C9111978230F1F0818118173F
:10150000D9F412962D913C91139782819381821781
:10151000930794F028173907BCF014968D919D918C
:101520000D90BC91A02D24813581468157812817CB
:1015300039074A075B0718F4112341F00AC08217E4
:101540009307A407B50740F4112319F061E070E098
:1015500005C06FEF7FEF02C060E070E0CB011F912C
:101560000895A1E1B0E0E7EBFAE00C94380E3C01FD
:101570007F876E876A01FC0117821682838181FD55
:1015800003C06FEF7FEF6FC39E012F5F3F4F398B1B
:10159000288BF3012381EE85FF8523FD859123FFB1
:1015A0008191FF87EE87882309F45AC3853251F46D
:1015B000EE85FF8523FD859123FF8191FF87EE87CF
:1015C000853229F490E0B3010E945D0FE2CF982F9D
:1015D00010E0882499241032B0F49B3269F09C32D8
:1015E00028F4903251F0933271F40BC09D3239F0EF
:1015F000903349F4116028C01260146025C018604F
:1016000023C0106121C017FD2AC0892F80538A3062
:1016100078F416FF06C0FAE09F9E902C1124980ED5
:1016200013C03AE0839E802C1124880E10620CC0F7
:101630009E3221F416FD14C3106406C09C3611F4CA
:10164000106802C0983659F4EE85FF8523FD959108
:1016500023FF9191FF87EE87992309F0BCCF892F53
:101660008554833020F4812F8061905E07C0892FDC
:101670008556833008F09FC1812F8F7E86FD02C082
:1016800076E0972E6FE3F62EF822953619F4F0E403
:10169000FF2A07C0963619F420E8F22A02C09110FA
:1016A0009A94F7FE0AC03BE3391518F45CE3B52EB3
:1016B00002C0B92CB39427E009C047E0491520F4D3
:1016C000BB2447E0942EF7CF292DBB24C6010496F6
:1016D0009D878C87F6016081718182819381AE0143
:1016E0004F5F5F4F0B2D0E946F0E6C010981202E02
:1016F000332400FF04C003FD02C01DE209C0F1FE57
:1017000002C01BE205C0F2FC02C010E001C010E202
:10171000C1018C709070892BB9F1112311F483E011
:1017200001C084E0881510F088240AC0881AF3FCF0
:1017300007C080E290E0B3010E945D0F8A94C9F770
:10174000112329F0812F90E0B3010E945D0F23FE49
:1017500003C00CE710E00EC000E810E00BC0E1147D
:10176000F10409F0805290E0B3010E945D0F0F5F19
:101770001F4F05C0EF2CFF24F0E1EF22FF24F801FA
:101780008491882361F714C1F7FE12C0BC0C24FEBB
:1017900004C08A81813309F4BA941B141CF0BB2461
:1017A000B3942DC0F8E0FB1550F538E0B32E27C0F8
:1017B000F6FC25C0892D90E08C159D054CF02CEF92
:1017C000C2162FEFD20624F030E8F32A01C09A9413
:1017D000992049F0E2E0F0E0EC0FFD1FE90DF11D6A
:1017E00080818033A1F3F7FE0AC0B92CB394892D10
:1017F00090E0C816D90614F0992401C09C18F7FC93
:1018000003C025E030E009C01C141D041CF021E0D9
:1018100030E003C096012F5F3F4F112311F02F5F7F
:101820003F4F992029F0892D90E00196280F391F0C
:10183000882D90E02817390714F0882401C0821AF7
:101840004F2C5524C20189709070892B39F008C043
:1018500080E290E0B3010E945D0F8A948820C1F776
:10186000112329F0812F90E0B3010E945D0F43FE08
:1018700007C008C080E390E0B3010E945D0F8A9426
:101880008820C1F7F7FE46C08601D7FE02C000E0FF
:1018900010E076010894E11CF11CE01AF10A41E025
:1018A00050E04C0F5D1FE40EF51E26014B18510849
:1018B000892D90E0AA24BB24A81AB90A5FEF0F3F34
:1018C000150729F48EE290E0B3010E945D0FC01667
:1018D000D10634F0401651061CF4F701808101C096
:1018E00080E3015010400894E11CF11C0A151B050F
:1018F0002CF090E0B3010E945D0FE0CF0C151D05A8
:1019000039F49A81963318F4953311F424FE81E367
:1019100090E04BC08A81813309F00F7E90E0B301E3
:101920000E945D0F9920A1F08EE290E0B3010E9429
:101930005D0F12E0E1E0F0E0EC0FFD1FE10FF11DA3
:101940001F5F808190E0B3010E945D0F9A9491F730
:1019500044FC03C085E690E002C085E490E0B3015A
:101960000E945D0FD7FC05C0C114D10441F404FFEF
:1019700006C0D094C194D108D3948DE201C08BE20B
:1019800090E0B3010E945D0F80E305C08F5F26EFFA
:101990003FEFC20ED31E3AE0C316D104BCF790E06D
:1019A000B3010E945D0FC601C096B3010E945D0F96
:1019B000CC84DD8452C1933631F0933799F093355E
:1019C00009F059C023C0F601808189835E01089423
:1019D000A11CB11C22E030E0C20ED31E21E0E22E99
:1019E000F12C12C0F601A080B18016FD03C06FEF8C
:1019F0007FEF02C0692D70E022E030E0C20ED31EFE
:101A0000C5010E94520F7C011F7713C0F601A08010
:101A1000B18016FD03C06FEF7FEF02C0692D70E04B
:101A200022E030E0C20ED31EC5010E94470F7C01A8
:101A3000106813FF07C01BC080E290E0B3010E9452
:101A40005D0F8A94882D90E0E816F906A8F30FC080
:101A5000F50117FD859117FF81915F0190E0B301BA
:101A60000E945D0F81108A940894E108F108E11446
:101A7000F10471F7F2C0943611F0993689F517FF29
:101A800008C0F601208131814281538184E090E0D9
:101A90000AC0F601808191819C01442737FD409561
:101AA000542F82E090E0C80ED91E9FE6F92EF12255
:101AB00057FF09C050954095309521953F4F4F4FA6
:101AC0005F4F90E8F92ACA01B901AE014F5F5F4F3D
:101AD0002AE030E00E94E80FE82EE889EE1A41C0C3
:101AE000953721F41F7E2AE030E01CC0197F9F3615
:101AF00061F0903720F4983509F0B2C00FC09037EC
:101B000039F0983709F0ACC004C028E030E00AC0D2
:101B1000106114FD146020E130E004C014FD166073
:101B200020E132E017FF08C0F601608171818281F7
:101B3000938144E050E008C0F60180819181BC01AE
:101B400080E090E042E050E0C40ED51EAE014F5F51
:101B50005F4F0E94E80FE82E5889E51A8FE7F82EAC
:101B6000F122F6FE0BC08EEFF822E91438F4F4FEF1
:101B700007C0F2FC05C09FEEF92202C01E2D01C075
:101B8000192DF4FE0DC0FE01EE0DF11D8081803394
:101B900019F4E9EEFE2208C01F5FF2FE05C003C083
:101BA0008F2D867809F01F5F0F2DF3FC14C0F0FE17
:101BB0000FC0181510F09E2C0BC09E2C980C911A7B
:101BC000182D06C080E290E0B3010E945D0F1F5FF8
:101BD0001815C0F304C0181510F4811A01C0882428
:101BE00004FF0FC080E390E0B3010E945D0F02FF8D
:101BF0001DC001FD03C088E790E00EC088E590E0BD
:101C00000BC0802F867891F001FF02C08BE201C0EB
:101C100080E2F7FC8DE290E0B3010E945D0F06C008
:101C200080E390E0B3010E945D0F9A94E914C0F341
:101C3000EA94E1E0F0E0EC0FFD1FEE0DF11D808174
:101C400090E0B3010E945D0FEE2091F706C080E2A4
:101C500090E0B3010E945D0F8A948820C1F799CC6F
:101C6000F30166817781CB016196E2E10C94540E19
:101C70002F923F924F925F926F927F928F929F929C
:101C8000AF92BF92CF92DF92EF92FF920F931F938A
:101C9000CF93DF93CDB7DEB7CA1BDB0B0FB6F8943B
:101CA000DEBF0FBECDBF09942A88398848885F847B
:101CB0006E847D848C849B84AA84B984C884DF80EC
:101CC000EE80FD800C811B81AA81B981CE0FD11DD0
:101CD0000FB6F894DEBF0FBECDBFED0108952830DA
:101CE00008F027E03327DA01990F311D87FD916055
:101CF00000966105710539F432602E5F3D9330E343
:101D00002A95E1F708959F3F30F08038710561050D
:101D100009F03C5F3C5F3D93913008F08068911D75
:101D2000DF93CF931F930F93FF92EF92192F987F1A
:101D30009695E92F96959695E90FFF27E252FF4F6A
:101D400099273327EE24FF24A701E7010590089483
:101D5000079428F4360FE71EF81E491F511D660F21
:101D6000771F881F991F0694A1F70590079428F400
:101D7000E70EF81E491F561FC11D770F881F991FB8
:101D8000661F0694A1F70590079428F4F80E491FE2
:101D9000561FC71FD11D880F991F661F771F0694F6
:101DA000A1F70590079420F4490F561FC71FD81FAD
:101DB000990F661F771F881F0694A9F784911095C5
:101DC000177041F0D695C79557954795F794E794C6
:101DD0001A95C1F7E4E8F0E06894159015913591F3
:101DE0006591959105907FE27395E118F10A430B97
:101DF000560BC90BD009C0F7E10CF11E431F561F4B
:101E0000C91FD01D7EF4703311F48A95E6CFE89493
:101E1000015030F0080F0AF40027021708F4202FB1
:101E20002395022F7A3328F079E37D932A95E9F7F9
:101E300010C07D932A9589F60694979567953795F6
:101E400017951794E118F10A430B560BC90BD009EB
:101E500098F023957E9173957A3308F070E37C9324
:101E60002013B8F77E9170617D9330F0839571E314
:101E70007D9370E32A95E1F71124EF90FF900F9185
:101E80001F91CF91DF91992787FD90950895FC01CF
:101E90000590615070400110D8F7809590958E0F95
:101EA0009F1F0895FC016150704001900110D8F708
:101EB000809590958E0F9F1F08950F931F93CF933A
:101EC000DF938C01EB018B8181FF1BC082FF0DC072
:101ED0002E813F818C819D812817390764F4E88128
:101EE000F9810193F983E88306C0E885F985802F9D
:101EF0000995892B31F48E819F8101969F838E8372
:101F000002C00FEF1FEFC801DF91CF911F910F911A
:101F10000895A0E0B0E0EFE8FFE00C94480EFE0169
:101F200035966191719180919A0290919B02AF01D7
:101F30000E94B10A2096E2E00C94640E0F931F9366
:101F4000CF93DF938C01E0919A02F0919B02838101
:101F500081FF21C0C0E0D0E00DC0E0919A02F09175
:101F60009B0220853185BF01F9010995892B11F06C
:101F7000CFEFDFEFF80181918F01882371F7E091B6
:101F80009A02F0919B02208531858AE0BF01F90118
:101F90000995892B11F0CFEFDFEFCE01DF91CF91C3
:101FA0001F910F910895A0E0B0E0E9EDFFE00C94DF
:101FB000480EFE0135966191719180919802909141
:101FC0009902AF010E94CA112096E2E00C94640EBF
:101FD000FA01AA27283051F1203181F1E8946F935A
:101FE0006E7F6E5F7F4F8F4F9F4FAF4FB1E03ED000
:101FF000B4E03CD0670F781F891F9A1FA11D680F9E
:10200000791F8A1F911DA11D6A0F711D811D911DD0
:10201000A11D20D009F468943F912AE0269F112445
:102020003019305D3193DEF6CF010895462F4770A9
:10203000405D4193B3E00FD0C9F7F6CF462F4F7004
:10204000405D4A3318F0495D31FD4052419302D062
:10205000A9F7EACFB4E0A695979587957795679508
:10206000BA95C9F700976105710508959B01AC0108
:102070000A2E06945795479537952795BA95C9F72F
:10208000620F731F841F951FA01D0895FC0120FD82
:1020900008C023FD05C022FF02C073836283518301
:1020A00040830895EF92FF920F931F9344FF02C065
:1020B00033E011C046FF02C034E00DC0DB01FC017B
:1020C000AA0FBB1FEE1FFF1F1094D1F76A0F7B1FD3
:1020D0008E1F9F1F31E0660F771F881F991F315099
:1020E000D1F77B018C01E20EF11C011D111DA8012D
:1020F0009701B701CA011F910F91FF90EF900895CA
:102100000F931F93CF93DF938C01C8010E94EE12AF
:10211000EC0197FD08C00E94DB12892BB1F7CE01BC
:10212000B8010E943013CE01DF91CF911F910F9122
:102130000895A0E0B0E0EFE9F0E10C94400EEC016E
:10214000C62E5A01122F0E94EE12AC018B3219F0EA
:102150008D3251F41068CA9409F46DC0CE010E940A
:10216000EE12AC0197FD67C06DEFD62ED1228D2DFA
:10217000807301F54033F1F4CA9409F447C0CE01ED
:102180000E94EE12AC0197FD41C082E0D82A483788
:1021900011F0483559F480E4D82ACA94B9F1CE0137
:1021A0000E94EE12AC0199232CF430C0D6FC02C080
:1021B00080E1D82AEE24FF248701242F20532830E1
:1021C00088F0D4FC09C02A3068F0D6FE05C02F7D07
:1021D000822F8151863028F0CA01BE010E9430133F
:1021E00012C02750C801B7014D2D0E9452107B012B
:1021F0008C0182E0D82ACA9461F0CE010E94EE12CE
:10220000AC0197FFDACFD1FC04C015C0EE24FF2447
:102210008701D7FE08C010950095F094E094E11C6A
:10222000F11C011D111DC501B801A7012D2D0E9432
:10223000461081E001C080E0CDB7DEB7EAE00C9443
:102240005C0EA0E2B0E0E7E2F1E10C943C0E6C0120
:10225000A62E8A017901FE01319680E2DF011D92EE
:102260008A95E9F770E030E060E040E050E04F012F
:10227000A1E0B0E0F6018381F70183FD259183FFA2
:1022800021917F01222309F47EC02E3519F44115D6
:10229000510569F1872F90E08417950744F42D3597
:1022A00051F12D3221F4332329F431E021C03323BD
:1022B00009F4622F322F832F869586958695F40137
:1022C000E80FF11D832F87703D0102C0660C771C5B
:1022D0008A95E2F7208126292083361711F430E011
:1022E00007C0361710F43F5FE6CF3150E4CF71E0FE
:1022F0004F5F5F4FBFCF332319F08E8180628E8393
:10230000772359F0FE0131969E012F5D3F4F80816A
:1023100080958193E217F307D1F7BB24B3944E0164
:102320000894811C911CC6010E94EE12AC0197FD1D
:1023300022C0869586958695F401E80FF11D80816F
:1023400090E09A012770307002C0959587952A9584
:10235000E2F780FD05C0CA01B6010E9430130BC030
:102360000115110519F0D8014D938D01AA94BB24D4
:10237000AA20C9F602C0BB2031F40115110529F0CD
:10238000F801108202C0EE24FF24C701A096EEE0FF
:102390000C94580EA0E0B0E0E0EDF1E10C943C0E9E
:1023A0005C016B013A01FC01178216828824EAC0A5
:1023B000812F90E00E94DB12892B21F0C5010E9441
:1023C0008010E0C0153249F4F601F3FC6591F3FE8C
:1023D00061916F01653269F415E2C5010E94EE1248
:1023E00097FDDCC0181709F4CDC0B5010E94301369
:1023F000DAC06A3219F0162F00E006C0F3FC15911E
:10240000F3FE11916F0101E099240FC00260692D64
:1024100070E080E090E040E20E945210962EF601BB
:10242000F3FC1591F3FE11916F01212F20532A30F7
:1024300068F301FD03C099249A9403C0992009F41C
:10244000B2C0183621F01C3699F4F6010BC0F60123
:10245000F3FC6591F3FE6191683619F06F01162F58
:1024600007C008600460F3FC1591F3FE11916F0141
:10247000112309F498C08EE791E0612F70E00E946B
:10248000E312892B09F48FC0802F00FF03C0EE24D4
:10249000FF2407C0F301E080F18022E030E0620E0B
:1024A000731E1E3651F4F5014681578160E070E0DD
:1024B000C701202F0E94461065C0133691F481FD9C
:1024C00002C099249394C5010E94EE1297FD66C044
:1024D000E114F10419F0F70181937F019A9499F7BF
:1024E0004FC01B3559F4C501692DA70196010E9403
:1024F00021116C01009709F043C03DC0C5010E9445
:10250000801097FD4BC01F3659F1103728F4143650
:1025100029F1193639F527C0133719F0153711F598
:102520001DC0C5010E94EE12EC0197FD11C00E9472
:10253000DB12892B29F0CE01B5010E94301308C0AF
:10254000E114F10419F0F701C1937F019A9449F75E
:10255000E114F104A9F0F701108212C0006203C077
:10256000006101C00064C501692DA701202F0E94F0
:102570009910882329F4F5018381807379F413C0BD
:1025800000FF8394F501F380F601F3FC1591F3FE4F
:1025900011916F01112309F00BCF05C0882019F4A8
:1025A0002FEF3FEF02C0282D30E0C901CDB7DEB7D5
:1025B000EEE00C94580E91116DC0803219F08950E4
:1025C0008550D0F70895FC010590061621F00020F3
:1025D000D9F7C00108953197CF010895CF93DF93C4
:1025E000EC014B8140FF1AC046FF0AC04F7B4B8372
:1025F0008E819F8101969F838E838A81282F2BC095
:1026000042FF13C0E881F9818081282F332727FDFD
:1026100030952115310529F440624B832FEF3FEFB0
:102620001BC03196F983E88311C0EA85FB85CE0192
:1026300009959C0197FF0AC09B812F5F3F4F11F0C6
:1026400080E201C080E1892B8B83E8CF8E819F815E
:1026500001969F838E8330E0C901DF91CF91089569
:102660009C01FB01838180FF11C086FD0FC09FEF9D
:102670002F3F390759F0228380648F7D83838681C1
:10268000978101979783868330E002C02FEF3FEF59
:0E269000C9010895992788270895F894FFCF6F
:10269E0050574D3D25337520203D3D3E20200041B5
:1026AE0044433D253464000D0A496C4D6174746FCA
:1026BE0020436F6D7320426F6F73742052454144F7
:1026CE0059210D00257320257500534554504F494F
:1026DE004E543A2025642020202000253034643AC0
:1026EE002020000A20564F4C54414745203D2025BE
:1026FE00660020202D2D3E202025352E33662056B7
:10270E000D0A0000000001000000000000F80000AB
:10271E00000000000200000000E4000000000000C5
:10272E000000000000000000010202030303030486
:10273E000404040404040405050505050505050542
:10274E000505050505050506060606060606060622
:10275E00060606060606060606060606060606060B
:10276E0006060606060606070707070707070707F2
:10277E0007070707070707070707070707070707DB
:10278E0007070707070707070707070707070707CB
:10279E0007070707070707070707070707070707BB
:1027AE0007070707070707080808080808080808A2
:1027BE00080808080808080808080808080808088B
:1027CE00080808080808080808080808080808087B
:1027DE00080808080808080808080808080808086B
:1027EE00080808080808080808080808080808085B
:1027FE00080808080808080808080808080808084B
:10280E00080808080808080808080808080808083A
:10281E00080808080808080808080808080808082A
:08282E0008080808080808006A
:00000001FF
